:020000040800F2
:1000000000500020790100087D2100087D210008B2
:100010007D2100087D2100087D2100087D21000848
:100020007D2100087D2100087D2100087F21000836
:100030007D2100087D2100087D210008351B000876
:100040007D2100087D2100087D2100087D21000818
:100050007D2100087D2100087D2100087D21000808
:100060007D2100087D2100087D2100087D210008F8
:100070007D2100087D2100087D2100087D210008E8
:100080007D2100087D2100087D2100087D210008D8
:100090007D2100087D2100087D2100087D210008C8
:1000A0007D2100087D2100087D2100087D210008B8
:1000B0007D2100087D2100087D2100087D210008A8
:1000C0004D41503040000000000000087029000041
:1000D000A00000000000000065A9566200000000BA
:1000E0000000000000000000000000000000000010
:1000F0000000000000000000000000000000000000
:10010000F0B5CE46474615042D0C2E0080B50704E9
:10011000140C3F0C9946030C7E435D4367436343D5
:100120007F19340CE4199C46A54203D980235B0255
:100130009846C4444B46514343433604360C250C81
:1001400024046544A4195918491920000CBC904690
:100150009946F0BD02B4714649084900095C49005E
:100160008E4402BC7047C04610B5024B00205B694C
:10017000984710BDD8280008F0B5384D384C85B0E8
:10018000641B00F0C3F82100280000F0E7F8002805
:1001900002D1012000F0D8F82100280001F0CCFBAA
:1001A0000028F6D001F0D8FB01900028F1D02D4FA7
:1001B0002D493800C91B00F0D1F82C4C029023695E
:1001C00003939847029B002B04D0002802D13800EB
:1001D00001F0C8FB236A03939847A36B03939847E6
:1001E000A36A039398470500E36B012003939847A4
:1001F0001F4E019A3100280000F0CCF8029B002B22
:1002000004D0002804D1FFF7AFFFE0E7002806D0B4
:100210003100280000F02EF80028F4D0BAE7E36A95
:1002200002939847019A3100040000F0B3F80028C7
:100230000BD1019A3100280000F0ACF8002805D15C
:100240000324FFF791FF2000A4E7250031002800D8
:1002500000F010F8041EF4D1D5E7C04600000008F5
:10026000005000080050000800F00208D8280008DC
:10027000F0300020F0B5CA680B6985B0D318204A69
:1002800000939C181F4B8D68240B9B692403060068
:1002900021002800019398470423002811D0A319B6
:1002A00034000193AB1B1B190293019B9C420BD39F
:1002B0000099280000F052F8424250410723404282
:1002C0000340180005B0F0BD80220E4F52017B6A3A
:1002D0000D4920000393984700280CD08022FB6929
:1002E00052010949029803939847002805D08023BA
:1002F0005B01E418D6E70523E3E70623E1E7C04600
:10030000FF0F0000D8280008343100200848094AAF
:1003100010B5121A084901F051FA0848084A00219C
:10032000121A01F08DFA074B1B68984710BDC046A2
:1003300000300020503000202029000850300020DC
:1003400034410020D8280008024B10B51860024B39
:100350009B68984730310020D828000830B50B0042
:1003600091B00200040001F0B5FA051E10D0C26879
:10037000002320322100684600F05CFFE9686846EF
:100380006118203101F0A0F9030058425841C0B271
:1003900011B030BDF0B59BB007928022484B494C5C
:1003A0005B6A0E0052012100050006939847002861
:1003B00002D100201BB0F0BD80212000490101F0D6
:1003C000BBFA011EF5D04022300001F0F7F9802180
:1003D0003269F36849019B182000B26801F07AFA8B
:1003E0000028E6D00AA801F07FF92F0021000022A2
:1003F000F368EB1820330593059B9F4240D30023FD
:1004000005980193401B00900AA801F07BF92D4C40
:10041000F068A02228182100069B98470028C8D021
:10042000402520002A000AA9A03001F0C7F90022C7
:10043000002308920993079B802202930023224EF7
:100440000092019308A9214A300000F05BFF089A4E
:100450000890089B55401D4331000AA8089501F0FB
:1004600033F9089B210018430890079800F008FD15
:10047000089B18430890089B58425841C0B299E71E
:10048000002A96D1059BDC1B80235B019C4200D98E
:100490001C00AF420BD1220000230A490AA800F039
:1004A000FFFC084B211A3F19C9180200A4E72200DB
:1004B00004493800069B98470028ECD179E7C046EC
:1004C000D828000834310020143200209431002054
:1004D000F0B5DE464E4657464546834681460022E5
:1004E000E0B58BB04B461E685F68802300245B023A
:1004F000F61867414B461E605F60531C9A46002108
:100500000E20D30F90424B4151464B43DB005B44DE
:100510009846310C3B041943009101204042C11719
:100520003B140193009C019D24184D41630FE90089
:100530001943E3000293039102980399001969415A
:1005400008900991830F89001943089B05919B002E
:10055000049304980599001969410F3A089009918C
:100560005142514100230A0008980999FFF7C8FD3C
:10057000434624184D411A685B68A4185D41434600
:100580001C605D60330C1B0406934B4607971A688A
:100590005B6806980799121A8B4149460CC152466E
:1005A0008946102A9ED10BB03CBC90469946A24683
:1005B000AB46F0BDF0B50F00C6465242D3178037A8
:1005C0009C46B84600B56746066845680C684B68A7
:1005D00074406B4014403B405D406640066045609F
:1005E0000D6808306C400C604C6863404B6008310B
:1005F0004145E8D104BC9046F0BDC046F0B54E463A
:100600004546DE465746E0B5C7B026AB0E0005901E
:100610009846180080360CC90CC0B142FBD126A800
:10062000FFF756FF26A8FFF753FF26A8FFF750FF56
:1006300002239B4606AB994622AB9A46269A279BF5
:100640001900012310003A4A5B42801859414B4679
:1006500001261860596006AB994626AAB446009058
:10066000019103E030003900009001919668D7684D
:1006700001213048494236184F4101990098090438
:10068000000C0843614601400C000025361BAF41B9
:1006900019889E60DF6019605D60083308329A45F2
:1006A000E0D14499459A4B4600910192080011000F
:1006B0004A4601271B6F526F1F4E7F4280197941B6
:1006C00016041A0C324366461640002203924A462C
:1006D0001B0402961B0C1367029E039F0023801BC2
:1006E000B94153679067D16762460B04000C184309
:1006F0008243494626A8FFF75DFF01235B429C46E3
:10070000E3445B46002B99D1059B404619002031FC
:10071000026808301A70120A5A7002339942F7D1EF
:1007200047B03CBC90469946A246AB46F0BDC04699
:100730001300FFFF0100FFFF0180FFFF30B50D0038
:1007400091B0010008AC6846FFF758FF290020006F
:10075000FFF754FF002100236A46E05CD25C0133BE
:1007600042401143202BF7D1481EC005C00F01386D
:1007700011B030BDF0B52026C646B446804600B55F
:100780008C4400234E780025320216001F000C789E
:10079000023136196F41C0C08C45F2D14346424602
:1007A0009B6F5B045B0C93670023D36704BC90468C
:1007B000F0BDC046F0B557464546DE464E46E0B56C
:1007C000C3B004AB02900C009A4600200021150033
:1007D00042AA03C39342FCD1A146802380214B440B
:1007E00001938C462B00634498465346D346AA4651
:1007F00003934B4655461E685F685C460CCD30003F
:100800003900FFF77DFC226863688018594103C4F2
:10081000A845F3D108239C46019BE144E344994554
:10082000E7D1039B22AD9A461C002100803126228D
:10083000086849680023FFF763FC22686368801832
:10084000594103C4A542F0D15146029B24AA30C9A4
:1008500030C38A42FBD1029C2000FFF739FE200002
:10086000FFF736FE43B03CBC90469946A246AB46E5
:10087000F0BDC046F0B5CE46474680B50C00A1B0ED
:1008800081460E000B00E8466A46803403CB03C263
:10089000A342FBD1FC2402276A4669466846651ECE
:1008A000FFF788FF2B00BB4306D03200694668463D
:1008B000FFF780FF631C01D02C00EDE7484620A91C
:1008C00044460CCCA0460CC08C42F9D121B00CBCE3
:1008D00090469946F0BDC046F0B58023DE4683467B
:1008E00057464E4645465B44E0B5060005001F00EE
:1008F0006D4CA544019102AC2B0003CD80331A68E6
:100900005B68121A8B410CC4AF42F5D182AA9046A3
:100910008022019C9446230063449946BA46AC4623
:1009200027004D46B1464646230003CC80331A6863
:100930005B68121A8B410CC6AC42F5D1654602A920
:1009400082AA0800FFF736FF22AB9C462B004E46DA
:100950006546A4461C0033008033186859680CCEE5
:1009600012184B410CC5A642F5D1644645463B00E2
:100970008033186859680CCF12184B410CC5BC4223
:10098000F5D122A9080082AAFFF714FF019E5C4658
:1009900032008134FF348132FF32210042A8FFF758
:1009A00009FF42A90800414AFFF704FF5B463200F5
:1009B0005D1CFF350132290062A8FF32FFF7FAFE05
:1009C00062A982A80A684B6892185B410CC18842F0
:1009D000F8D1002602AA31009446A2AB9F1922AB9F
:1009E0009B1961441A685B6808684968121A8B4150
:1009F00008363A607B60802EECD10026C2AB9F198E
:100A000042AA62AB91199B191A685B680868496829
:100A1000121A8B4108363A607B60802EEED1002698
:100A2000E2AB9F1962AB9A1942AB9B1910685168EF
:100A30001A685B6812184B4108363A607B60802E5A
:100A4000EED10026FFAB0C339F1902A922AB9A19F5
:100A50008C4610685168330063441A685B6812184A
:100A60004B4108363A607B60802EEBD1C2AAA2A926
:100A70005846FFF79FFEFFA9E2AA50460C31FFF748
:100A800099FEC2AAE2A92800FFF794FEFFAA0C3241
:100A9000A2A92000FFF78EFE054B9D443CBC90466A
:100AA0009946A246AB46F0BD74FBFFFF98220008B2
:100AB0008C04000030B50C00E9B001310500FF31B5
:100AC00048A8FFF7D7FE48AA210008A8FFF772FE42
:100AD000210048AA28A88031FFF76CFE28A9280029
:100AE000FFF78CFD08A96846FFF788FD6B461A786A
:100AF00001231340EA7FDB015340EB7769B030BD3F
:100B0000F0B5DE464E464546574681460400E0B500
:100B10003A4B83B08B46019280341A0000200021AA
:100B20004D4601E01068516803C50832A542F9D16D
:100B30004946A846324A4D1CFF35140001200021C9
:100B4000464601E02068616803C60834AE42F9D128
:100B50004C468134FF3401200021350001E010684B
:100B6000516803C50832AC42F9D1802292004A4450
:100B7000002000212C0001E01868596803C40833E4
:100B80009442F9D1FF23A0469A465346019ADB10BE
:100B9000D75C0723524613401F4101231F404346A1
:100BA0005D464C46D8461E00290020003A0080349D
:100BB000FFF700FD8035A642F6D13300494658467E
:100BC00046469846FFF788FE49464846FFF784FEAA
:100BD0004D46310028003A008035FFF7EBFC8036A7
:100BE000AC42F6D153465A1E9246CED203B03CBC1C
:100BF00090469946A246AB46F0BDC0465030002014
:100C000018280008F0B5C64600B51B4C1B4AA54481
:100C1000050088466B46944620AC1948002101E047
:100C20001068516803C30832A342F9D1154A40AE97
:100C300014001548002101E02068616803C30834EE
:100C4000B342F9D1114C60A80126002701E02668C3
:100C50006768C0C308349842F9D16146FFF7AAFD1E
:100C6000424669462800FFF74BFF80239B009D44C6
:100C700004BC9046F0BDC04600FEFFFF18270008E8
:100C80001AD50000982700085866000018280008A8
:100C9000F0B54546DE4657464E46E0B589B00A00F7
:100CA0000B000491CC2149008C4663449846130004
:100CB000982294460832634494469B46624B4546CC
:100CC00063449946FF239A4605902C00002000219A
:100CD000A03C5D4EED22002300900191A04601E072
:100CE00032687368286E696E070F09013943000185
:100CF000FFF706FA009A019B121A8B4141460868D9
:100D0000496812184B4180200021801859410F0674
:100D1000040A3C4300940C12019457460400BC435F
:100D20000294039102980399121A8B4141460CC117
:100D300008368846B145D3D128686968009A019B76
:100D400012184B4100242A606B600023083DAB66FB
:100D5000EC66AB45B9D1082084463B49049A61440E
:100D600088468021150049008C462900F8310E0084
:100D7000FF218B46002113008946414663449A4671
:100D800014000295ED223500002300910026002773
:100D900002E041460CC988466968286809070009CD
:100DA000084369680911FFF7ABF932003B00121ADA
:100DB0008B412068616812184B411906160A0E43D0
:100DC00059461F124B460A40226063600834A24510
:100DD000DFD132003B000099029D88461A49A146A6
:100DE0004F1CAA46FF37049EED20002114001D0071
:100DF00002E0434603CB984622002B00FFF780F920
:100E000032687368121A8B410CC64745F1D10599B7
:100E10004C4655460E0069682F6808063A0A024398
:100E20000B12A868E9688018594108352860696084
:100E300037700136AC42EED109B03CBC90469946C1
:100E4000A246AB46F0BDC0461826000871B5FFB0FB
:100E500002006B460100002580AE0C785D601C60CE
:100E600008330131B342F8D101000023403113703F
:100E700001328A42FBD16946FFF70AFF7FB071BD9C
:100E800030B500230024C25CCD5C01336A401443BA
:100E9000202BF8D1601EC005C00F013830BDC04600
:100EA000F0B54E4645465746DE468C464021E0B5F5
:100EB000EBB08946159202001F004A441AAB3AADC6
:100EC0001E001793B946030090462F0018901D008E
:100ED00019000020002308350C781A0E00021B02AE
:100EE0000131234310438D42F6D13B60336078607B
:100EF0007060083708360B004145E8D14F4619911C
:100F0000002F00D188E1634608331693159B139791
:100F10001293169C4AAD2000002300210838067861
:100F20001A0E09021B020130334311438442F6D1E9
:100F30002B6069606AAB08350834AB42EBD1BA4B21
:100F4000BA4C08331493BA4B00221E0027000992B2
:100F500000232AAA3AA9D218C91808330868496890
:100F600010605160402BF4D10F210998429A014042
:100F70008C464699439B0D00479995430800449938
:100F800098430C0045991440194065400A95484023
:100F90009D04910B0D439404990B0B900C43980303
:100FA000910C08439103884681464046990C0143C1
:100FB000484661406840DC05550A5B0AD205254376
:100FC0001343584069400C900D910C980D990A9A62
:100FD0000B9B12184B414898499912184B414AA84B
:100FE0006146804692197B41C900414408684968BE
:100FF00012184B413C99009201930B003D9A1D0041
:1010000014003E983A9F3F993B9E45404C40184003
:101010003D401140454034400E954C403501390F5C
:1010200038010D43310F0F940143BC08B00704434E
:10103000BB07B0081843454061407006FC09F6093B
:101040007F0620433E437540414011911095109C0E
:10105000119D0E980F9900196941009A019B801803
:101060005941389039913098319912184B4100907C
:1010700001910020309231932AAC0723C0CC3AAAC8
:10108000904601300340DB0043441E605F60082847
:10109000F3D163460F2B09D0099B01330993502BE1
:1010A00000D17CE0149BC0CB149351E74AAB0027DE
:1010B0009C46009700990F220B00093313404AAA5F
:1010C0009046DB0043441C685D680F2301310B40F0
:1010D000DB00434458681A68C607B24657465608AC
:1010E0003743D607B1460F23BA464F4600910D311C
:1010F000460819403743C90006064144B046B94680
:101100004746160A37431606B346B8465F46060AF0
:10111000069407953E434446574667404C46D209DD
:10112000664044062243C009574046406246069C3A
:10113000079D02970396029E039FA4197D4116689E
:1011400057680B684968DA0C4803A4197D411043BD
:101150005E03CA0C16438046CA00580F0243480F6C
:1011600081464F46D8003843474672409B098E0659
:101170003343890978404A40584004900592049AC4
:10118000059BA4185D41634630C300999C46102915
:1011900090D1099B01330993502B00D082E7179817
:1011A0003AA90A684B680468456812196B410CC17A
:1011B0000CC04AAB8B42F4D1129B139C8021494254
:1011C000CA175B185441169A1293139480321692E0
:1011D000002C00D09DE6129B7F2B00D999E67F233F
:1011E000159A189C1A40179D159207222B6869685A
:1011F0000806A3541B0A0343090A013AF8D2199BB3
:1012000008340835A342F0D115986BB03CBC904629
:101210009946A246AB46F0BD159B7F2B00D972E6DE
:10122000189C179DE1E7C04698230008982F8A4232
:1012300022AE28D7F0B5CE46474680B58946150080
:101240001E00D3B0040000236A222D4900E05A5C3E
:1012500002A8C2540133402BF9D12A003300494679
:1012600002A8FFF71DFE7F2028402B1A12A99846DE
:1012700000220B0052AF1A700133BB42FBD1002891
:1012800035D04F4600234744FA5CCA540133984294
:10129000FAD180230B546F282BD980220023F82702
:1012A000F720520000920193730F0B54F600680F61
:1012B000BC4606430720ED008C4467463D54370684
:1012C0002D0A3D43360A0138F7D2009A019B02A845
:1012D000FFF7E6FD002302AAD25CE2540133402B63
:1012E000F9D1002053B00CBC90469946F0BD802344
:1012F0000B70802200237827772000920193D3E798
:1013000098280008F0B54E46DE4657464546E0B5FB
:10131000160001225242D317D84C0A604B60A544F4
:1013200002AA9446D64B009063441B680191002B9F
:1013300000D1C1E102AB9C46C425D423ED00DB0003
:10134000634465449B46CF4A2B000120002101E005
:101350001068516803C308329B45F9D102AAEA23F9
:101360009446DB0063441968B423DB00634418002F
:10137000FFF700FA2AAB9A4602AAB4239446DB0090
:1013800063441A0019005046FFF714FA4AABBE4AEC
:101390001800514699462F00FFF70CFA53462A00D1
:1013A00003CA1C685D68241A8D412000290003C30C
:1013B0009945F5D13D00494630006AAC0E684F684A
:1013C0000CCD92197B410CC18C42F7D14A4649465B
:1013D0008AAF06002000FFF7EDF922002100380057
:1013E000FFF7E8F922003900AAA8FFF7E3F952460F
:1013F000AAA90AA8FFF7DEF90AA94A460800FFF7DA
:10140000D9F90AAB98462AAB9A46CAAD2A00434698
:10141000544603CB03C29C42FBD1A246F924CAAA7C
:1014200011001000FFF7C6F9002C06D0CAA90AAABD
:101430000800FFF7BFF9631C01D0013CEFE743460A
:1014400032003800EAA9C0CDC0C38D42FBD10AA941
:101450001600070052460800FFF7ACF90AA9080079
:101460004A46FFF7A7F90AA908004A46FFF7A2F97A
:1014700002A8A4238446DB00634418004A460AA954
:10148000FFF798F902AAA4239446DB0063441A00EC
:101490001900CAA8FFF78EF9CAA908004A46FFF743
:1014A00089F95146CAA8FFF749F9002800D0D3E0CE
:1014B00002AAA4239446DB0063441A001900CAA8B8
:1014C000FFF778F9CAA908004A46FFF773F95146B1
:1014D000CAA8FFF733F98046002800D098E002AA96
:1014E000A4239446DB00634419001000FFF786F83C
:1014F000012202AB1B7802A91A40EA238C46DB00CA
:1015000063441B68DB7FDB099A4200D1AFE002AA8B
:10151000B4239446DB0063441A00A423DB00634435
:1015200019005846FFF746F9E92302AA9446DB0062
:101530006344196800230098F25CC25401338B4263
:10154000FAD102AAEA2394460098DB0063441A68A1
:101550000300403020331178013219700133984272
:10156000F9D102AAE9239446DB0063441A685B6858
:101570000099AAA8FFF75EFEAAA8FFF767FC02A9D8
:10158000A4238C46DB0063441900AAAACAA8FFF76B
:10159000B7FA02AAA42394463100DB006344180082
:1015A0002031FFF72FFB02AAA4239446DB006344FB
:1015B0001900CAA8FFF790F9CAA93800FFF77AFA0C
:1015C000E92302AA944640204042C117DB0063444D
:1015D0005C681B680025C01861410024735D7A5D5A
:1015E000013553401C43202DF8D1631EDB051BD46D
:1015F00008430DD002A9E9228C460021D2006244A2
:101600001268009B403A9A18197001339A42FBD134
:1016100001235B42984640461C4B9D443CBC90468F
:101620009946A246AB46F0BD03000B4310D0E92417
:1016300002ADAC46E400644424683300A446009A3A
:10164000403366441C780133147001329E42F9D154
:10165000019B18605960DEE702A9A4238C46DB00D9
:1016600063440B4A19001800FFF7A4F820E7A423ED
:10167000DB006344074A002000210FE0D4F8FFFF9D
:101680004C07000018280008182200082C0700004A
:101690001823000850300020106851681C685D68ED
:1016A000001BA94103C3B42102A88446C9006144B8
:1016B00008329942F0D12AE7E923DB0063441B6832
:1016C0003F2B00D936E6A3E730B500230024C25CE7
:1016D000CD5C01336A401443402BF8D1601EC00535
:1016E000C00F013830BDC0466A220023044900E023
:1016F0005A5CC2540133402BFAD100207047C046D7
:1017000098280008F0B504007F20C6461040131A40
:1017100098468C46002300B5D2B0589E599FE25C93
:1017200002A9CA540133402BF9D112AD2B0000227B
:1017300052A91A7001339942FBD1002835D0614675
:1017400000234144CA5CEA5401339842FAD1802311
:101750002B546F282BD980220023F820F721520028
:10176000009201937B0F6B54FF00710F84460F436F
:101770000721F600AC44604646543806360A064354
:101780003F0A0139F7D2009A019B290002A8FFF70E
:1017900087FB002302AAD25CE2540133402BF9D12B
:1017A000002052B004BC9046F0BD80232B708022F4
:1017B00000237820772100920193D3E7F0B505004C
:1017C0000F2A2FD90B0003439B0734D116000C00BE
:1017D0000300103E350901352D01451927681F60AA
:1017E00067685F60A7689F60E7681034DF60103348
:1017F0009D42F3D10F239E4310368519891913405A
:10180000032B1AD91E1F0023B4080134A400CF589B
:10181000EF500433A342FAD10324A643331D2240E0
:10182000C918ED18002A05D00023CC5CEC54013314
:101830009342FAD1F0BD0500F6E71A00F2E7C04680
:10184000F0B5830743D0541E002A3FD0CEB2020029
:10185000032502E01A00013C38D3531C16702B42BA
:10186000F8D1032C2AD9FF220A40150215432A0475
:1018700015430F2C14D927001A00103F3E090136DA
:1018800036019E19156055609560D56010329642FC
:10189000F8D10F2297431037DB191440032C0DD9D0
:1018A0001A00271FBE080136B6009E1920C2B24298
:1018B000FCD1032297430437DB191440002C05D0D8
:1018C000C9B21C19197001339C42FBD1F0BD140040
:1018D0000300C6E770B514001D00FF2901D80020E1
:1018E00070BD03689A07FAD1114A10329342F6D3B9
:1018F000104A9342F3D8012243681342EFD0934336
:10190000621CFF329342EAD362199342E7D28021EC
:10191000490000F011F80028E1D083689C42DED134
:101920000369A02BDBD1C368A0339D42D8D2D6E790
:10193000000000200050002003000020FF2908D9EB
:10194000C033044A1968914203D15A68402A00D131
:10195000180070474D415030002802D08368C0689D
:101960001818704770B5040006684568EFF31083D7
:1019700072B6054B5B68984786F30888FF239C4343
:10198000024B1C6062B62847D828000808ED00E02A
:1019900010B5034B1B6B984700F03CFA10BDC046D6
:1019A000D8280008194BF0B501251C007F311A68B2
:1019B0002A40FCD1164B174D01271D60164DC90951
:1019C0001D60164B164D1D60164D1D608225164B71
:1019D000AD001E68354302261D60002908D1012094
:1019E0001A6812490A401A601A6802431A60F0BD68
:1019F000026025683D42FCD12568354202D0256849
:101A0000B543256080300139E7E7C0461820024021
:101A10000C200240EFCDAB890504030210200240E8
:101A2000BFAE9D8C1615141304200240F7FDFFFF76
:101A3000F7B50323019000200F0015000B408342EF
:101A400020D11800019B13439B061BD1012313498E
:101A50000A681A42FCD12C00114B124A1A60124A31
:101A60001A60124B124A1A60124A1A60019B281B14
:101A700039181818002C06D1012001230E4A1168CC
:101A80000B431360FEBDEFF3108672B600F0BCFB93
:101A900086F310880028F0D0403CE7E71820024089
:101AA0000C200240EFCDAB89050403021020024058
:101AB000BFAE9D8C1615141304200240002070B593
:101AC000084DAC686300AB6083420AD000F04AF96D
:101AD0000120E40FEB68640001345C432B68E418D8
:101AE0002C6170BDD0300020002383F31088642265
:101AF000024BDA60633A1A767047C046D030002055
:101B0000002812D001221F23400010430100D940B9
:101B1000114202D1013B022BF8D1421C024051423A
:101B20004A419B181F22D31A9840014B58607047B6
:101B3000D0300020182070B51F4C23685D1C256034
:101B400020560138032803D8FEF704FB050D173093
:101B5000002323762FE06368002B2CD0A360FFF7CF
:101B6000ADFF0223F5E72369EB1A24D400F000F956
:101B7000E3685D1925610323EBE72369EB1A15D4AC
:101B8000FFF79CFF0223002804D1E3685B005B1988
:101B9000236104232269AD1A0BD46368A360FFF7A5
:101BA0008DFF0300581E83410133D2E701235B42BE
:101BB000F0E75A1CCDD170BDD030002000487047EE
:101BC000FC170808034B1868013043425841C0B263
:101BD0007047C046FC1708080D4B40421A6830B5E4
:101BE000824213D00B4A0124110015682542FCD112
:101BF000094A0A4C14600A4C1460186001230A68F0
:101C00001A42FCD1074A11680B43136030BDC0462D
:101C1000FC170808182002400C200240EFCDAB89C9
:101C2000050403020420024010B500F04BF910BD7A
:101C3000AA231B061A00174908684240120E120612
:101C400042400A60144A11684B401B0E1B064B4071
:101C500013608023114A1B0511684B401B0E1B06A5
:101C60004B40136080220E49D2010B6813430B6076
:101C70000C4B19680A431A601A680B490A401A602B
:101C800004230A490A681A430A60094A11680B4387
:101C90001360704700040050080400500C0400500A
:101CA0003810024028100240FFBFFFFF00380040FC
:101CB00004380040F7B54025144C01932668144FB2
:101CC000354325600025134E0094002A09D1019B5D
:101CD000002B05D1009B40321B689343009A136090
:101CE000F7BD022433682342FBD0002901D00D78D0
:101CF00001313D60012433682342FBD03B6800285A
:101D000001D003700019013ADFE7C04600380040F7
:101D10000C380040083800408020C0027047802006
:101D20004002704710B500F03BF90223094A302009
:101D300011680B4313601023074A11684B4003409E
:101D40004B4013600423054A054913600B60136080
:101D500010BDC0462C100240000400502804005062
:101D6000180400500422014B1A60704718040050F8
:101D70000422014B1A607047280400508022054B52
:101D800001305202002800D1704719681142FCD07E
:101D90000138F7E710E000E070B5012808D104260B
:101DA000124C2568754025606420FFF7E7FFF9E7CE
:101DB000EFF3108372B68025FFF7A2FE0C4C6D0284
:101DC0000C4A13682B42FCD0013CFFF7B3FE002CF9
:101DD000F6D1BFF34F8F084A084B116808484B40B3
:101DE00003404B401360BFF34F8FFEE714040050D5
:101DF00060EA000010E000E00CED00E00400FA05ED
:101E00000400FFFF10B5024C646BA04710BDC04634
:101E1000D8280008002300B5180089B0012218490D
:101E2000FFF7F0FF0023012216491800FFF7EAFF31
:101E3000154B6420DB680193984701230522134961
:101E40000020FFF7DFFF00231822190002A8FFF788
:101E5000D9FF0F4B029A08209A4209D1062102AB02
:101E60005A791B791202FF3113438B4202D80920A1
:101E7000FEF76AFA02ABDB79FF2BF8D109B000BD9F
:101E80001E2900081D290008D82800081829000864
:101E900053464450032337B50C0001A90B70030CC3
:101EA0004B70030A15008B70C870012304220020B8
:101EB000FFF7A8FF00232A0020001900FFF7A2FF68
:101EC00001203EBD012200232649524230B50A605E
:101ED0000B602549E0200A600B60244900020A607B
:101EE0000B6023490A600B600321224A13688B436D
:101EF0001360C023204A1B0211684B4003404B4033
:101F0000136080231D4A5B0011680B43136080231C
:101F10009B0011681942FCD00320194B19688143BA
:101F20001960093019680140FCD101251868154C69
:101F3000204018601068144C2040144C1060206839
:101F4000A84320601068124C204010601A681148A5
:101F500002401A60104B114A196013687B318B43A1
:101F6000136030BD281002402410024020100240AF
:101F70001C10024010E000E004100240001002407B
:101F80000C1002400FC0FF80F6FFF6FE0810024062
:101F9000FFFFFBFFFFFF02FF101002400020024086
:101FA000F8B5EFF3108372B6802201245A4B520029
:101FB00019685A480A431A60594A62261168014052
:101FC0001160196857480140574819600168A143DA
:101FD000016019685548564C014019601168554810
:101FE0000140002011605449086054490C604221AE
:101FF000534C256869403140694021600121514DB1
:10200000494229602860504D296028604F4D296061
:1020100028604F4D296028601168890702D002307E
:10202000FEF792F980214B48490505680D4202D11F
:102030000568294301608020C026474900010D68DA
:102040007601684030406840086001201D682843E0
:10205000186004201D680542FCD09020F8273F4DF1
:1020600040012E687F017040384070402860802019
:102070000D684000054048D0802639487600076842
:102080003E4306608026B60007683742FCD0002D2C
:1020900003D10868334D28400860802189041868FE
:1020A0000842FCD18821FD251068C90341402D0458
:1020B000294041401160802118684904014319609A
:1020C0008021890418680842FCD0012321688B43D1
:1020D0004B402360032311688B434B400C2113605A
:1020E00013680B400C2BFBD11F4A204B1A600022B7
:1020F0001F4B1A601F4B07321A601F4A1168CB43EF
:102100005B0F5B074B401360F8BD0E6806430E6023
:102110000E680642FCD0AFE7001002400CC0FF8002
:102120000C100240F6FFF6FE08100240FFFFFBFF16
:1021300000000008FFFF02FF1010024008ED00E061
:1021400000200240281002402410024020100240CB
:102150001C10024038100240007000400410024081
:1021600050100240FFFEFFFFFF7C000014E000E083
:1021700018E000E010E000E020ED00E0FEE773B5BD
:102180001600FF22120680180D00042837D8FDF72C
:10219000E1FF030E121F2D00FFF710FD002E02D1EC
:1021A0000224644201E0306000242C6073BD3000E2
:1021B000FFF79AFAF8E7002EF2D003243440EFD16B
:1021C000B268230071683068FEF76AFEB060ECE721
:1021D000002EE5D003243440E2D1F368B2680093C6
:1021E0000194230003CEFFF78DFADEE719003000DB
:1021F000FFF76AFA0024A042D7D0033CD5E70124B8
:10220000CFE700000000000001B40248844601BC92
:10221000604700BF01300020A378000000000000EC
:102220005913000000000000CA4D0000000000002B
:10223000EB75000000000000ABD8000000000000BB
:1022400041410000000000004D0A000000000000B5
:10225000700000000000000098E80000000000008E
:1022600079770000000000007940000000000000C5
:10227000C78C00000000000073FE0000000000009A
:102280006F2B000000000000EE6C0000000000005A
:10229000035200000000000059F10000000000009F
:1022A000B226000000000000949B00000000000027
:1022B000D6EB00000000000056B100000000000056
:1022C00083820000000000009A140000000000005B
:1022D000E00000000000000030D10000000000001D
:1022E000F3EE000000000000F2800000000000009B
:1022F0008E19000000000000E7FC00000000000054
:10230000DF56000000000000DCD9000000000000E3
:102310000624000000000000B0A000000000000043
:102320000E4A000000000000271B00000000000013
:10233000EEC400000000000078E40000000000008F
:102340002FAD000000000000061800000000000093
:10235000432F000000000000A7D70000000000008D
:10236000FB3D00000000000099000000000000009C
:102370004D2B0000000000000BDF000000000000FB
:10238000C14F000000000000802400000000000099
:10239000832B00000000000022AE28D7982F8A422D
:1023A000CD65EF23914437712F3B4DECCFFBC0B58A
:1023B000BCDB8981A5DBB5E938B548F35BC256398A
:1023C00019D005B6F111F1599B4F19AFA4823F9274
:1023D00018816DDAD55E1CAB420203A398AA07D818
:1023E000BE6F7045015B83128CB2E44EBE85312412
:1023F000E2B4FFD5C37D0C556F897BF2745DBE726C
:10240000B196163BFEB1DE803512C725A706DC9BD0
:10241000942669CF74F19BC1D24AF19EC1699BE4B5
:10242000E3254F388647BEEFB5D58C8BC69DC10FCF
:10243000659CAC77CCA10C2475022B596F2CE92D2F
:1024400083E4A66EAA84744AD4FB41BDDCA9B05CC7
:10245000B5531183DA88F976ABDF66EE52513E98B8
:102460001032B42D6DC631A83F21FB98C82703B0A8
:10247000E40EEFBEC77F59BFC28FA83DF30BE0C685
:1024800025A70A934791A7D56F8203E05163CA0637
:10249000706E0E0A67292914FC2FD246850AB727C9
:1024A00026C9265C38211B2EED2AC45AFC6D2C4D02
:1024B000DFB3959D130D3853DE63AF8B54730A65FC
:1024C000A8B2773CBB0A6A76E6AEED472EC9C28158
:1024D0003B358214852C72926403F14CA1E8BFA2B3
:1024E000013042BC4B661AA89197F8D0708B4BC252
:1024F00030BE5406A3516CC71852EFD619E892D1DA
:1025000010A96555240699D62A20715785350EF4F1
:10251000B8D1BB3270A06A10C8D0D2B816C1A41905
:1025200053AB4151086C371E99EB8EDF4C7748272F
:10253000A8489BE1B5BCB034635AC9C5B30C1C397B
:10254000CB8A41E34AAAD84E73E363774FCA9C5BB8
:10255000A3B8B2D6F36F2E68FCB2EF5DEE828F7433
:10256000602F17436F63A57872ABF0A11478C8840D
:10257000EC39641A0802C78C281E6323FAFFBE9048
:10258000E9BD82DEEB6C50A41579C6B2F7A3F9BEA3
:102590002B5372E3F27871C69C6126EACE3E27CABD
:1025A00007C2C021C7B886D11EEBE0CDD67DDAEADE
:1025B00078D16EEE7F4F7DF5BA6F1772AA67F0067D
:1025C000A698C8A2C57D630AAE0DF9BE04983F1156
:1025D0001B471C13350B711B847D0423F577DB2807
:1025E0009324C7407BABCA32BCBEC9150ABE9E3C11
:1025F0004C0D109CC4671D43B6423ECBBED4C54CA7
:102600002A7E65FC9C297F59ECFAD63AAB6FCB5FEA
:102610001758474A8C19446CED0000000000000078
:10262000D300000000000000F500000000000000E2
:102630005C000000000000001A0000000000000024
:102640006300000000000000120000000000000015
:102650005800000000000000D6000000000000004C
:102660009C00000000000000F700000000000000D7
:10267000A200000000000000DE00000000000000DA
:10268000F900000000000000DE0000000000000073
:102690001400000000000000000000000000000026
:1026A000000000000000000000000000000000002A
:1026B000000000000000000000000000000000001A
:1026C000000000000000000000000000000000000A
:1026D00000000000000000000000000000000000FA
:1026E00000000000000000000000000000000000EA
:1026F00000000000000000000000000000000000DA
:1027000000000000000000000000000000000000C9
:1027100010000000000000001AD5000000000000BA
:10272000258F000000000000602D00000000000068
:1027300056C9000000000000B2A700000000000021
:10274000259500000000000060C7000000000000A8
:102750002C690000000000005CDC000000000000AC
:10276000D6FD00000000000031E200000000000083
:10277000A4C0000000000000FE53000000000000A4
:102780006ECD000000000000D33600000000000005
:1027900069210000000000005866000000000000F1
:1027A0006666000000000000666600000000000091
:1027B0006666000000000000666600000000000081
:1027C0006666000000000000666600000000000071
:1027D0006666000000000000666600000000000061
:1027E0006666000000000000666600000000000051
:1027F0006666000000000000666600000000000041
:102800006666000000000000666600000000000030
:1028100066660000000000000100000000000000EB
:1028200000000000000000000000000000000000A8
:102830000000000000000000000000000000000098
:102840000000000000000000000000000000000088
:102850000000000000000000000000000000000078
:102860000000000000000000000000000000000068
:102870000000000000000000000000000000000058
:102880000000000000000000000000000000000048
:1028900000000000000000006A09E667F3BCC908F8
:1028A000BB67AE8584CAA73B3C6EF372FE94F82BDF
:1028B000A54FF53A5F1D36F1510E527FADE682D13C
:1028C0009B05688C2B3E6C1F1F83D9ABFB41BD6BF6
:1028D0005BE0CD19137E2179251D0008291C000815
:1028E000991D00087D1D0008C51B0008D91B0008A4
:1028F000A5190008311A000891190008951E000852
:10290000191D00081F1D0008311C0008B51C000817
:10291000E91A0008011B00085A000000009966002F
:102920008122104B10B51C68D20022431A600200AD
:102930001C004032091A0B5808C08242FBD1012208
:10294000094B19681142FCD102211A680A4202D0CF
:102950001A688A431A602368044A012013402360DE
:1029600010BDC0460420024018200240F7FBFFFFC4
:1029700034E750EDD5C5B9BB4358406C60F81364DB
:10298000701281A17D31CBB6E73E0E5BC0694193E9
:10299000D4EA9688E73F8660D872686065CBCAD172
:1029A0009A85A6E8058E0C326CD999ADF616FEAE66
:1029B000B3563BA62BC8A7BD6A15CAC7B0EA9BC5CC
:1029C000528BAD2DE138478CA71E53C570F2A8B4C9
:1029D0004E900019B950561A6719818061C175D09F
:1029E000BC8AFE058AEC70D665B7C753AF853D3FFC
:1029F00018AE548012627545AA64B53284AB5F91FB
:102A0000CC6605EAD846051B01C3083D5B7F070A73
:040000050800017975
:020000040800F2
:105000000050002071360108C5360108C536010878
:105010000000000000000000000000000000000090
:10502000000000000000000000000000C53601087C
:105030000000000000000000C53601089F8501083F
:10504000C5360108C536010861D20008C536010819
:10505000C536010839A4010849A4010859A401086A
:10506000C5360108C5360108C5360108C536010830
:10507000C5360108C5360108FD960108158D0108E1
:10508000298D01083D8D0108518D010800000000A7
:10509000658D0108B9910108798D01088991010890
:1050A000A1910108C5360108C5360108CD96010851
:1050B000E5960108C5360108000000004982010894
:1050C0004D4150304000000000500008089601009B
:1050D000A0000000000000005FA956620000000070
:1050E00000000000000000000000000000000000C0
:1050F00000000000000000000000000000000000B0
:1051000010B5064C2378002B07D1054B002B02D09D
:10511000044800E000BF0123237010BDA00300205D
:1051200000000000F0BD0108084B10B5002B03D0B3
:105130000749084800E000BF07480368002B00D17A
:1051400010BD064B002BFBD09847F9E7000000008C
:10515000A4030020F0BD0108A0030020000000000F
:1051600002780B78002A03D0013001319A42F7D03F
:10517000D01A70470023C25C0133002AFBD1581EAD
:105180007047000002B4714649084900095C4900B3
:105190008E4402BC7047C04603B4714649084000C3
:1051A0004900095E49008E4403BC704703B4714650
:1051B000490840004900095A49008E4403BC704721
:1051C000002243088B4274D303098B425FD3030A46
:1051D0008B4244D3030B8B4228D3030C8B420DD359
:1051E000FF22090212BA030C8B4202D312120902E7
:1051F00065D0030B8B4219D300E0090AC30B8B4225
:1052000001D3CB03C01A5241830B8B4201D38B03D2
:10521000C01A5241430B8B4201D34B03C01A524177
:10522000030B8B4201D30B03C01A5241C30A8B42BA
:1052300001D3CB02C01A5241830A8B4201D38B02A5
:10524000C01A5241430A8B4201D34B02C01A524149
:10525000030A8B4201D30B02C01A5241CDD2C309BB
:105260008B4201D3CB01C01A524183098B4201D337
:105270008B01C01A524143098B4201D34B01C01A22
:10528000524103098B4201D30B01C01A5241C3089A
:105290008B4201D3CB00C01A524183088B4201D309
:1052A0008B00C01A524143088B4201D34B00C01AF5
:1052B0005241411A00D20146524110467047FFE761
:1052C00001B5002000F0F0F802BDC0460029F7D07B
:1052D00076E7704703460B437FD4002243088B4296
:1052E00074D303098B425FD3030A8B4244D3030B6D
:1052F0008B4228D3030C8B420DD3FF22090212BA32
:10530000030C8B4202D31212090265D0030B8B42AD
:1053100019D300E0090AC30B8B4201D3CB03C01A97
:105320005241830B8B4201D38B03C01A5241430B72
:105330008B4201D34B03C01A5241030B8B4201D362
:105340000B03C01A5241C30A8B4201D3CB02C01ACD
:105350005241830A8B4201D38B02C01A5241430A45
:105360008B4201D34B02C01A5241030A8B4201D334
:105370000B02C01A5241CDD2C3098B4201D3CB01DB
:10538000C01A524183098B4201D38B01C01A52418A
:1053900043098B4201D34B01C01A524103098B428E
:1053A00001D30B01C01A5241C3088B4201D3CB0079
:1053B000C01A524183088B4201D38B00C01A52415C
:1053C00043088B4201D34B00C01A5241411A00D20C
:1053D00001465241104670475DE0CA0F00D0494275
:1053E000031000D34042534000229C4603098B42E5
:1053F0002DD3030A8B4212D3FC22890112BA030A6D
:105400008B420CD3890192118B4208D389019211EE
:105410008B4204D389013AD0921100E08909C30973
:105420008B4201D3CB01C01A524183098B4201D375
:105430008B01C01A524143098B4201D34B01C01A60
:10544000524103098B4201D30B01C01A5241C308D8
:105450008B4201D3CB00C01A524183088B4201D347
:105460008B00C01A5241D9D243088B4201D34B0062
:10547000C01A5241411A00D20146634652415B10A4
:10548000104601D34042002B00D549427047634685
:105490005B1000D3404201B5002000F005F802BDCA
:1054A0000029F8D016E770477047C0468446101CA4
:1054B00062468C46191C634600E0C0461FB501F0E9
:1054C00083FF002801D40021C8421FBD10B501F0A0
:1054D000DDFE4042013010BD10B501F075FF00281F
:1054E00001DB002010BD012010BDC04610B501F049
:1054F0006BFF002801DD002010BD012010BDC0465B
:1055000010B501F0FDFE002801DC002010BD0120D7
:1055100010BDC04610B501F0F3FE002801DA0020EE
:1055200010BD012010BDC0468446081C6146FFE73F
:105530001FB500F0B3FC002801D40021C8421FBDF4
:1055400010B500F045FC4042013010BD10B500F030
:10555000A5FC002801DB002010BD012010BDC046C5
:1055600010B500F09BFC002801DD002010BD0120DB
:1055700010BDC04610B500F051FC002801DC002031
:1055800010BD012010BDC04610B500F047FC00283A
:1055900001DA002010BD012010BDC046002B11D142
:1055A000002A0FD1002900D1002802D00021C943D0
:1055B000081C07B4024802A14018029003BDC0466F
:1055C000E9FEFFFF03B4684601B5029800F066F8F3
:1055D000019B9E4602B00CBC7047C046F0B5CE465B
:1055E000474615042D0C2E0080B50704140C3F0C03
:1055F0009946030C7E435D43674363437F19340C34
:10560000E4199C46A54203D980235B029846C44412
:105610004B46514343433604360C250C2404654461
:10562000A4195918491920000CBC90469946F0BDA0
:105630009E2110B5C905041CFFF7A6FF002803D161
:10564000201C00F029FF10BD9E21201CC90500F080
:1056500087FD00F021FF80231B069C466044F2E793
:1056600070B500220C4B04000D00FFF753FF00281B
:1056700004D12000290002F09FFC70BD064B0022DF
:105680002000290002F082F902F096FC80231B061C
:105690009C466044F1E7C0460000E041F0B5574643
:1056A0004E464546DE46E0B5040083B00D00924606
:1056B00099468B422FD82CD04946504602F024FE02
:1056C00029000600200002F01FFE331A9846203BF6
:1056D0009B4600D574E053465A4693401F005346FC
:1056E000424693401E00AF4229D826D05B46A41BF9
:1056F000BD41002B00DA79E00022002300920193E3
:1057000001235A469340019301234246934000935C
:1057100019E08242D0D900220023009201930C9B11
:10572000002B01D01C605D600098019903B03CBC67
:1057300090469946A246AB46F0BDA342D6D9002278
:105740000023009201934346002BE8D0FB07720828
:105750001A4346467B080EE0AB4201D1A2420CD868
:10576000A41A9D41012024196D410021013E2418F5
:105770004D41002E06D0AB42EED9013E24196D41B9
:10578000002EF8D15B460098019900196941002B61
:1057900022DB2B005A46D3402A004446E2401C003C
:1057A0005B461500002B2CDB26009E4033002600B4
:1057B0004746BE403200801A994100900191AEE701
:1057C000424620239B1A5246DA40414613004A467D
:1057D0008A4017001F4382E7424620239B1A2A0073
:1057E00046469A402300F3401343D5E74246202320
:1057F00000219B1A0022009101920122DA400192BD
:1058000082E74246202326009B1ADE402F00B44642
:10581000974066463B003343C9E7C046F0B5C646ED
:105820004E024702760A7B0A4400C50FF700480083
:10583000984600B5240E2A00DB00000EC90FBC46B6
:105840008D4267D0221A002A00DCA5E000283AD158
:10585000002F00D193E0511E002900D0BCE00124AC
:10586000DB1B5A0146D59B019E09300002F02EFD3C
:1058700005388640844200DD9DE0041B3200202074
:105880000134E240041BA64033005E1EB3410024F5
:1058900013435A0704D00F221A40042A00D00433BD
:1058A0005A0129D50134FF2C00D181E02A009B0147
:1058B0005B0AE4B25B02E405580AD20720431043B6
:1058C00004BC9046F0BDFF2CE3D080213800C90411
:1058D000084384461B2A00DD82E020206146D14037
:1058E000821A604690400200501E82410A439B1A71
:1058F0005A01B8D45A07CED1DE082A00FF2C3AD17B
:10590000002E00D1AEE08023DB0333435B025B0A51
:10591000FF24CFE7211A002952DD002831D0FF2CC7
:10592000B7D080203E00C0040643B4461B2900DDEA
:10593000AAE020266046C840711A66468E403100B3
:105940004E1EB14101435B185901D3D50134FF2CE0
:1059500000D187E0012278491A405B080B401343CD
:1059600097E7002C00D0A7E0002B00D0B6E03B1E4C
:1059700062D10026002273025B0AE4B29AE71400A7
:1059800087E7002F4DD0481E002857D163440124DB
:105990005A01AFD50224DDE7002A24D1621CD2B21D
:1059A000012ADEDDDE1B720135D5FE1A0D005CE733
:1059B0002A0000237EE73300604A241A134068E778
:1059C000002963D1611CC8B201284EDDFF2949D0EE
:1059D00063445B080C005CE7FF2A41D00A0079E7CA
:1059E00001229B1A84E7002C1DD0FF2822D080249E
:1059F000E404524223431B2A00DD8AE01C002025D8
:105A0000D440AA1A93405A1E93412343624604008D
:105A1000D31A0D0025E7002E00D026E7002200242F
:105A2000A9E70C0035E7002B4DD0D243002AEDD07A
:105A3000FF28E0D16346FF240D002AE7FF290FD09D
:105A4000010073E7002B61D0FF24002F00D120E775
:105A500080224146D203114202D0164200D13B00BF
:105A6000FF2416E7FF24002324E7002CEAD1002BB3
:105A700058D0002F00D10CE763445A0100D439E715
:105A80002E4A0C00134004E701215CE7002C1ED1D4
:105A9000002B40D0C94300290BD0FF2836D01B294A
:105AA00047DC1C002026CC40711A8B40591E8B41CC
:105AB00023436344040047E7002B18D13B1E2DD03D
:105AC0000D00FF24E5E63B0004000D00E1E6FF28A1
:105AD0001CD08024E40449422343E0E7002F00D196
:105AE000D7E6DE1B72011FD5FB1A0D00D1E6FF249D
:105AF000002F00D1CDE680224046D2031042AFD025
:105B00001642ADD13B000D00FF24C2E66346FF24E0
:105B1000BFE601237AE73B000400BAE680260022B4
:105B2000F603F0E63B00B4E6331E00D0E2E60022C6
:105B300021E70123BDE7C046FFFFFF7DFFFFFFFB1D
:105B4000F0B557464E46DE464546E0B544024300B2
:105B5000C60F83B00F1C640A1B0EB24653D0FF2B36
:105B600027D08022E400D20414437F225242904680
:105B70009844002399469B467D027800FB0F6D0AEE
:105B8000000E009324D0FF2846D080230021ED0092
:105B9000DB041D437F384746381A4F460F43BF008A
:105BA000B9463300009A874F53404A46BA5801938A
:105BB0009746002C4ED108239946F7339846FD3B73
:105BC0009B467D027800FB0F6D0A000E0093DAD130
:105BD000002D26D1002001213300009A7A4F534036
:105BE0004246101A4A460A439200BA581D00974688
:105BF000009B2C009A468B465B46022B31D15346C4
:105C0000FF21002438E0002C17D1042399460023FB
:105C1000984601339B46AFE7FF20002D0BD10221B0
:105C2000DAE7280002F052FB431F9D4076235B42D7
:105C3000181A0021AFE70321ADE7200002F046FB70
:105C4000431F9C4076235B421B1A984600239946CB
:105C50009B4691E70C239946F3339846FC3B9B46C1
:105C60008AE7032B00D1A5E05546012B00D081E047
:105C70000123002100242B406402C905600ADB07D0
:105C80000843184303B03CBC90469946A246AB4635
:105C9000F0BD80240023E403FF21EDE7FF21002471
:105CA000EAE70123591A1B2966DD019A13400021F6
:105CB0000024E1E78023DB031C4238D01D4251D091
:105CC0001C436402640A3300FF21D5E763016C01C1
:105CD000A3423BD21B260021013801251F004900A9
:105CE0005B00002F01DB9C4201D81B1B2943013EB6
:105CF000002EF3D11C00631E9C410C4301007F3138
:105D00000029CEDD630704D00F232340042B00D0ED
:105D10000434230103D501002C4B80311C40FE29A3
:105D20000DDD0123019AFF2113400024A4E7802305
:105D3000DB031C436402640A3300FF219CE7012358
:105D4000019AA401640AC9B2134095E71B1B1A26E5
:105D50000121C2E7009B8B469A4600244CE7630270
:105D6000E5D500258024E4032C436402640A009BEB
:105D7000FF2181E70195C1E723002020CB40411A94
:105D80008C40611E8C411C43630704D00F232340C9
:105D9000042B00D00434630105D50123019A0121AD
:105DA0001340002468E70123019AA401640A134008
:105DB000002161E78023DB031C436402640A53462D
:105DC000FF2159E708BE010848BE0108FFFFFFF7A1
:105DD00070B5420045024E024C00C30F6D0A120E10
:105DE000760A240EC90F0120FF2A06D0FF2C03D00B
:105DF000A24201D1B54206D070BD002DFCD1FF2CCE
:105E0000FAD1002EF8D18B4206D00120002AF3D11E
:105E10002800451EA841EFE70020EDE7F0B542005D
:105E200045024C02C30F48006D0A120E640A000EB0
:105E3000C90FFF2A1ED0FF2821D0002A0AD16E42A6
:105E40006E41F6B200280FD1002C0DD10020002D9C
:105E500009D005E0002801D1002C01D08B4211D0DF
:105E6000012158420843F0BD002EF7D0012001392E
:105E70000843F8E7002DDED002204042F3E7002C73
:105E8000DBD0F9E78242EBDC04DBA542E8D8002056
:105E9000A542E8D20121581E0843E4E7F0B54200CC
:105EA0004D024C004602760A120EC30F6D0A240EF4
:105EB000C90FFF2A16D0FF2C18D0002A0AD1704231
:105EC0007041C0B2002C15D0002805D00120013946
:105ED0000843F0BD002C13D0994214D001205B423E
:105EE0001843F6E70220002EF3D1E4E70220002D4C
:105EF000EFD1E2E7002DE7D10020002EE9D0EDE759
:105F0000002DE9D1EAE7A24206DCDFDBAE4203D88E
:105F10000020AE42DAD3DCE7012049420843D8E74B
:105F2000F8B557464E464546DE46E0B547024600C0
:105F300088467F0A360EC40F002E47D0FF2E24D08D
:105F4000FB008027FF041F43002399469A467F3EAB
:105F500043465D025800DB0F6D0A000E984643D0A1
:105F6000FF283BD0EB0080250022ED041D437F3845
:105F70003618731C41469B464B46614013430F2B1A
:105F800064D875489B00C3589F46002F42D1082310
:105F90009946063BFF269A46DAE74146022A28D070
:105FA000032A00D1CEE0012A00D0ACE0114000204D
:105FB0000022CCB24002D205400AE407104320433D
:105FC0003CBC90469946A246AB46F8BD002F15D181
:105FD00004239946033B00269A46B9E7FF20022294
:105FE000002DC5D00322C3E7002D19D100200122C6
:105FF000BEE70124FF220C400020DBE7380002F05E
:1060000065F97626431F9F4000237642361A99464B
:106010009A469DE70C239946093BFF269A4697E747
:10602000280002F053F9431F9D4076235B42181A63
:1060300000229DE780200024C003FF22BAE73D0034
:106040005246ABE73D0021005246A7E73B0C9C4679
:106050002A04120C2B0C1400604665463F043F0CCA
:106060007C4342435D437B43270C9B18FF18BA4295
:1060700003D980235B029C46654424043A04240C23
:10608000121993015C1EA3413F0C920E7D191A4315
:10609000AD0115432B0104D501235E466A081D405E
:1060A000154332007F32002A25DD6B0704D00F2311
:1060B0002B40042B00D004352B0103D53200274B95
:1060C00080321D40FE2A94DC0124A801400AD2B28D
:1060D0000C406FE78020C003074207D0054205D17E
:1060E00028434002400A4446FF2263E73843400207
:1060F000400AFF225EE70124A31A1B2B05DD0C409A
:106100000022002056E75E46CBE72A002020DA4036
:10611000C31A9D402B005D1EAB4113435A0704D0A8
:106120000F221A40042A00D004335A0104D5012456
:1061300001220C4000203DE701249B01580A0C403D
:10614000002237E780200124C00328434002400A90
:106150000C40FF222EE7C04688BE0108FFFFFFF774
:10616000F0B54F46D64646464400C0B5C20F47027A
:106170004802400A844666467B0A4800C90F9A4690
:10618000240E1500DB00000E8946F600FF2800D122
:106190008FE001214F464F403900914266D0221ACC
:1061A000002A00DC9DE000283DD1002E00D18BE0CC
:1061B000511E002900D0B5E001249B1B5A0144D593
:1061C0009B019F09380002F081F80538874084421E
:1061D00000DD96E0041B3A0020200134E240041B5D
:1061E000A7403B005F1EBB41002413435A0704D065
:1061F0000F221A40042A00D004335A0127D5013453
:10620000FF2C00D179E001229B015B0AE4B22A4015
:106210005B02E405580AD207204310431CBC904699
:106220009946A246F0BDFF2CE0D08021C9040E4360
:106230001B2A7BDC31002020D140821A9640721E3E
:1062400096410E439B1B5A01BAD45A07D0D1012262
:10625000DF082A40FF2C33D1002F00D1A8E0802393
:10626000DB033B435B025B0AFF24D1E7211A0029D1
:106270004CDD00282AD0FF2CB8D08020C004064373
:106280001B2900DDAFE030002027C840791A8E407E
:10629000711E8E4106439B195901D6D50134FF2C3E
:1062A00000D185E001227A491A405B080B40134374
:1062B0009CE7002E00D070E76BE73B1EC5D10022A3
:1062C0007B025B0AE4B2A3E714008FE7002E4DD0F7
:1062D000481E002857D19B1901245A01B5D5022424
:1062E000E0E7002A25D1621CD2B2012A72DD9F1B91
:1062F0007A0135D5F71A0D0064E7012200232A4000
:1063000086E73B00634A241A13406FE700296CD1EB
:10631000611CC8B201284EDDFF2949D09B195B08DA
:106320000C0063E7FF2A41D00A0081E701269B1B8E
:1063300089E7002C1CD0FF2821D08024E40452429D
:1063400023431B2A00DD96E01C002025D440AA1A16
:1063500093405A1E93412343F31A04000D002DE786
:10636000002F00D02EE700220024A9E70C003DE713
:10637000002B58D0D243002AEED0FF28E1D13300C1
:10638000FF240D0032E7FF2910D0010078E7002B31
:106390006ED0FF24002E00D128E780225146D20380
:1063A000114203D06146114200D13300FF241DE7A2
:1063B000FF2400232CE7002CE9D1002B63D0002E12
:1063C00000D113E79B195A0100D43EE7314A0C0073
:1063D00013400BE7002C1ED1002B2FD1002E4FD0E5
:1063E00033000D0002E7012655E7002C1FD1002BDA
:1063F00043D0C94300290BD0FF2839D01B2944DCE6
:106400001C002027CC40791A8B40591E8B41234316
:106410009B19040040E7002B1AD1002E24D18027BD
:106420000022FF031BE7330004000D00DEE6FF2817
:106430001ED08024E40449422343DFE7002E00D12C
:10644000D4E69F1B7A0100D437E7F31A0D00CDE69E
:10645000FF24002E00D1C9E680225046D20310420C
:10646000A4D060461042A1D133000D00FF24BDE648
:106470003300FF24BAE601236EE733000400B5E6DB
:10648000002700221CE73300B0E60123C0E7C04626
:10649000FFFFFF7DFFFFFFFB41024300C20F490AE0
:1064A0001B0E00207E2B0DDD9D2B0CDC80200004BC
:1064B0000143952B0ADC9620C31AD9404842002A92
:1064C00000D108007047034BD018FBE7963B99407A
:1064D000F4E7C046FFFFFF7F70B5002830D0C31738
:1064E000C4185C40C50F200001F0F0FE9E231B1A6B
:1064F000962B0DDC9622D21A94402A006402640A7C
:10650000DBB26402DB05600AD2071843104370BD9A
:10651000992B19DC9922D21A002A29DD94402200F5
:10652000144C1440510704D00F210A40042A00D013
:106530000434620113D4A401640ADBB22A00E0E748
:10654000002200230024DCE705222100121AD1409A
:10655000B922D21A9440621E94410C43DAE7054BEB
:106560002A001C409F23A4011B1A640ADBB2C8E75F
:106570002200D5E7FFFFFFFB10B5041E27D001F076
:10658000A5FE9E231B1A962B0ADC9622D21A944053
:106590006402640ADBB26402DB05600A184310BDC2
:1065A000992B17DC9922D21A002A27DD9440220069
:1065B000134C1440510704D00F210A40042A00D084
:1065C0000434620112D4A401640ADBB2E3E70023BD
:1065D0000024E0E7B9222100D21A91400A00511E9E
:1065E0008A410521091ACC401443DBE7044B1C40C7
:1065F0009F23A4011B1A640ADBB2CCE72200D7E771
:10660000FFFFFFFBF8B54546DE4657464E460C03F6
:10661000E0B54E00C90F88460D00610A440F0C43D7
:10662000C70019035800DB0F9B464B0A510F0B4361
:10663000760D400D1900D200D84500D1AEE0351AD4
:10664000002D00DCF6E000280FD1134300D1DBE081
:106650006B1E002B00D037E1BA1A9742BF41641A73
:106660007F42E41B0126170024E0C64B9E424DD01A
:1066700080231B041943382D00DD07E11F2D00DDA9
:1066800038E12020431B9A460B0050468340994630
:1066900013004846EB401843030050468240501E0A
:1066A0008241E9401A43BA1A611A9742A44117007D
:1066B00064420C1B230262D56402650A002D00D1DE
:1066C000DFE0280001F002FE0300083B1F2B00DD85
:1066D000D2E020223C00D21A9D40D4409F40254366
:1066E0009E4200DDC4E09E1B731C1F2B00DDF1E009
:1066F000202238002900D21AD840914097402C001F
:106700000143781E8741DC4000260F437B0709D0F8
:106710000F233B40042B05D03B1DBB42BF417F42B2
:10672000E4191F0023022CD5964B01369E4200D15E
:106730009AE04546944BFF081C40600776056402CA
:106740000743240B760D00212403230B0C0D8F4AE5
:1067500024051C431440330523435B00ED075B080D
:106760002B43380019003CBC90469946A246AB46E4
:10677000F8BD6446044300D111E2040067467B077C
:10678000C6D145466007FF080743E4087D4B9E429B
:1067900030D024037605240B760DD4E7331A9A46BD
:1067A000002B78DD002831D076488642AED080209C
:1067B000000401435346382B00DCE9E00A43511E34
:1067C0008A410021D219BA42BF4109197C421700FF
:1067D0000C192302D3D56B4B01369E4200D13AE10E
:1067E0000120694B1C407B0807401F43E00707431B
:1067F00064088BE723003B4300D1CBE180221203E6
:1068000014432403240B9EE72E007FE70800104367
:1068100000D1B4E0581E002800D0DEE0BA18BA4219
:106820009B4164185B42E418170001262302A6D599
:106830000226D5E7002D6ED1701C4005400D0128C1
:1068400000DCF9E0B81A844687428041E51A4042EC
:106850002D1A280200D489E0D71BBA4292411C1B92
:106860005242A51AD84629E74546002400276AE780
:10687000454CF61A2C4049E73D0028388540002752
:106880002EE7380001F022FD20301DE70A43511E9B
:106890008A41002107E7002B00D0F3E0701C43057C
:1068A0005B0D012B00DCADE0364B984200D1D1E00E
:1068B000BA18BA42BF4164187F42E419E707520888
:1068C00017436408060021E72E48854200D193E073
:1068D0001D00D0E629001F3EF140202B00D18DE0A5
:1068E0004022D31A9D402F437D1EAF4100240F4309
:1068F000002644E72B000800203BD8400300202D51
:1069000000D17DE04020451BA9400A43511E8A4129
:1069100000211A43C7E6002E50D01A4EB04257D07D
:1069200080266B429946360434434B46382B00DDB3
:10693000D6E01F2B00DD35E12026F51A2600AE40FB
:10694000B2463E00DE40AC46350056462E43654614
:10695000AF407D1EAF41DC403743D71BBA42924166
:106960000C1B5242A41A0600D846A3E664466746AA
:106970002C4300D0A2E600250026002706E71E00D3
:10698000C4E6C046FF070000FFFF7FFFFFFF0F8048
:106990001F2B63DC2020C31A080098409C468346C6
:1069A00053461000D84003005846184363469A40A7
:1069B000531E9A4153460243D94003E726003E4303
:1069C00006D0EB439946002BC7D0944EB042ACD1D1
:1069D0000C0017000600D84698E6904B9A450BD05D
:1069E0008246E7E6002800D09EE01800104300D160
:1069F000E9E01C001700D846884E87E6002572E7BC
:106A0000002182E723003B43002E00D0ABE0002BA7
:106A100000D1E7E00B00134300D177E6BA18BA4281
:106A2000BF4164187F42E419230200D4F2E07C4B9A
:106A300017001C40060069E620003843002ED1D123
:106A400000285BD11C00144300D1A8E01C001700F3
:106A5000D8465BE606000024002797E650460B0068
:106A60002038C34099465346202B00D195E040235F
:106A700050461B1A99400A43511E8A414B46002139
:106A80001A439FE6002E30D126003E4367D0DB43F9
:106A90009A46002B1CD0614EB04260D05346382B32
:106AA00000DD96E01F2B00DD9FE02026F31A260074
:106AB0009E409C46B34653463E00DE4033005E4651
:106AC0001E4363469F407B1E9F415346DC40374335
:106AD000BF189742924164185242A418060078E603
:106AE00027437C1EA741002437E74C4EB04236D0E6
:106AF00080265B4236049A463443CFE718001043A1
:106B000000D103E6B81A84466745AD41E01A6D42EC
:106B1000401B050200D42CE6D71BBA4292411C1B35
:106B20005242A41AD846F1E51800104300D163E799
:106B3000F808670707438020E4080003044208D0F0
:106B4000DD08054205D1D208590711430F002C007A
:106B5000D8467B0FE4001C43FF00304ED6E50C0006
:106B600017000600D2E5002B38D00B00134300D1EC
:106B700042E7F808670707438020E408000304425F
:106B8000E7D0CB080342E4D1D208490711430F00F4
:106B90001C00DEE700270024D5E500216BE7002577
:106BA0000027F3E54E462500203EF5404B462E00DB
:106BB000202B2DD04025ED1AAC4027437C1EA74149
:106BC00000243743C9E6802400252403134E002700
:106BD000DCE527437C1EA741002479E70C00170061
:106BE0000E4E93E50C00170090E556462300203E1C
:106BF000F34099465346202B0ED0402356469B1B0C
:106C00009C4027437C1EA7414B4600241F435FE75F
:106C10000024D2E71700B2E50024F2E7FF070000E6
:106C2000FFFF7FFFF0B557464546DE464E46E0B5CE
:106C30004C000E0387B0834692461D008046360BFB
:106C4000640DCF0F002C4FD06F4B9C4235D080236A
:106C5000420F1B04F600134333439946C300984682
:106C60006A4B00269C460023644403932B031B0BB2
:106C70009B466B00ED0F50465B0D01955ED0624A5E
:106C8000934253D05A46D1008022400F120402434F
:106C90000A4393465246D1005C4A9446002263441C
:106CA0003800684084460290E41A16430F2E00D93B
:106CB000B4E0574BB6009B599F46030033439946B7
:106CC0006CD100239846023308260393CEE7CB46C7
:106CD0004146039A0197022A65D1019B4A4C9C4682
:106CE0000023002298466BE00300334399464ED0C0
:106CF000002E00D1BCE1300001F0E8FA03000B3BAC
:106D00001C2B00DDACE11D22D31A5A460100DA40EB
:106D100008398E401300334399465B468B409846B2
:106D200000233C4C0026241A03939FE751465A4601
:106D3000114329D1002293460232B1E7594601435B
:106D40001ED05B46002B00D19EE1584601F0BEFAF2
:106D500003000B3B1C2B00DD8FE102005946083A73
:106D600091408B461D21CB1A5146D9400B00594604
:106D70000B4351469B469140264B00221B1A8FE73E
:106D8000002301229B468BE75146032288E700231C
:106D90009846013304260024039367E70323B14692
:106DA00003930C2662E7032A00D15CE2019B012ACF
:106DB00000D0E4E113409C460023002400229846C2
:106DC00000211203130B0A0D12051A432305124C5E
:106DD00040462240134362465B00D2075B081343E0
:106DE000190007B03CBC90469946A246AB46F0BDA0
:106DF000002380229C4612039846034CE0E70023C0
:106E0000014C00229846DBE7FF07000001FCFFFF72
:106E1000C8BE01080DFCFFFFFFFF0F80D94500D958
:106E200039E100D134E1002346464D469A46013C03
:106E30005B460A0E1B021A430B02170C0393130442
:106E40001B0C3900280090460193FEF7B9F90200A7
:106E5000019B83465A43280039009146FEF736FAD3
:106E6000350C09040D43A9450DD95B464544013B4A
:106E7000A84500D93AE1A94500D837E102235B4291
:106E80009C464544E3444B46EB1A390018000493F2
:106E9000FEF796F9019B0500434339000498994693
:106EA000FEF714FA330409041B0C0B43994509D966
:106EB00043446A1E984500D91AE1994500D817E164
:106EC000023D43444A469B1A5A4612042A430399F8
:106ED0009346100C0A0C914609045A46090C4E467A
:106EE0000D001204120C4543059151437243704347
:106EF00052190E0CB218954203D980256D02AC468A
:106F00006044150C09041204090C28185218834215
:106F100000D2CEE000D1C8E01D1A53469E1AB245F9
:106F200092415242AB1A9A46984500D117E1390076
:106F30001800FEF745F9019B050043433900504610
:106F40000493FEF7C3F904980B04310C19438842EB
:106F500009D941446B1E884500D907E1884200D811
:106F600004E1023D4144049BCB1A1800390004930C
:106F7000FEF726F9019B82464343390004980193AA
:106F8000FEF7A4F901980B043104090C1943884257
:106F90000DD953464144013B884500D9E8E0884279
:106FA00000D8E5E002235B429C464144E244019B59
:106FB0002D04CE1A51462943059D4F462A000B0445
:106FC000080C1B0C5A4345437B4378435B19170C51
:106FD000FB189D4203D980256D02AC4660441D0C10
:106FE00012041B04120C28189B18864200D293E04E
:106FF00000D18EE001231943A04BE318002B00DCE5
:1070000099E04A0700D09EE05A46D20106D55A467A
:107010009B4B1A4080239346DB00E318994A934226
:1070200068DD0123029A984C1A4000239446984642
:107030000022C5E680224B46120313420AD05B466B
:10704000134206D11A431203120BAC4688468E4CEB
:10705000B6E64B461A431203120BBC468A4CAFE607
:1070600003005A46283B9A4000239146984657E62B
:10707000584601F02BF9203040E603005246283BE9
:107080009A400021934677E601F020F920305FE630
:10709000884500D2C7E64B46DE075D0843465B08DD
:1070A0001E434346DB079A46C2E60025924500D3BD
:1070B00033E7039E5946B446E244B245AD416D42C2
:1070C0004544EB180139984507D2984200D97FE032
:1070D00000D1BCE01D1A8B461FE79845FAD1039DED
:1070E0005545F2D943468B461D1A16E79B46CAE61C
:1070F0001500E7E65A46C90852070A435B05904661
:107100005C0D5A460123029952021940120B8C461B
:1071100056E6002B00D16FE746444A1EB04529D9F8
:107120001100864200D065E7039A934200D061E7E0
:1071300062E7012149420120C21A382A21DD029B5F
:1071400003409C4638E60F220A40042A00D15BE740
:107150000A00111D914292415242934454E7474B19
:10716000E318002BE5DD01225242F2E71D00FAE6AA
:107170009A461CE7B04239D86ED011003AE7029324
:107180003AE71F2A3CDC20239B1A0C005846994002
:1071900098404B1E99415B46D440D340204308435E
:1071A0001A00430709D00F230340042B05D0010028
:1071B000081D88429B415B42D21813023AD5012335
:1071C000029A01241A400023944698460022F7E5CB
:1071D000022149428C46039DE344AC46E244AA4561
:1071E000AD416D424544ED182D1A96E68A1E03996D
:1071F0004D008D42894149424144761803958FE7FD
:107200001F204042C31A5846D8400300202A28D0E5
:1072100040205D46821A954029434A1E91411943F8
:10722000072300220B4009D00F2300220B40080047
:10723000042BBDD1010053075202120BC908194398
:10724000012388460299002419408C46B8E552452E
:10725000BED88B46002560E6039D9D42C6D3110033
:1072600062E70025D8E780225B4612031A43019BA0
:107270001203120B9C468846034CA1E5FF03000055
:10728000FFFFFFFEFE070000FF070000F0B54F46BE
:107290004646D6465C00C0B51F03DB0F9A46174B27
:1072A0000E034D0084468046360B6D0DC90F914686
:1072B0003F0B640D01209D4208D09C4201D0A542A5
:1072C0000BD01CBC90469946A246F0BD63463343A2
:1072D000F7D1AC42F5D13A43F3D10120BE42F0D10F
:1072E000C845EED1514507D0002DEAD163461E4373
:1072F0003000461EB041E4E70020E2E7FF0700004F
:10730000F0B54546DE4657464E46E0B51F033D0BF9
:107310002C4F0E034C00AB465D008446360B640DCB
:10732000C90F90466D0DDB0FBC422AD0254FBD42E0
:107330002DD0002C0FD13043070081467842784190
:10734000C0B2002D17D15F463A4314D14B460020FE
:10735000002B0AD006E0002D02D15846024301D08E
:10736000994218D04842012108433CBC90469946B6
:10737000A246AB46F0BD0028F2D00120013B1843E5
:10738000F3E737000743D1D002204042EDE75F46E4
:107390001743CED0F8E7AC42E4DC03DA481E012103
:1073A0000843E2E75E45DDD806D000205E45DCD22A
:1073B0000123481E1843D8E7C445D3D80020C4454C
:1073C000F6D3D2E7FF070000F0B54E464546DE464D
:1073D00057465C00E0B51F03DB0F99462A4B0E03AE
:1073E0004D00C90F8446360B6D0D8B4690463F0B02
:1073F000640D9D4220D0244B9C4222D0002D12D1FE
:10740000304343424341DBB2002C1FD0002B0CD051
:107410004B460120013B034318003CBC9046994673
:10742000A246AB46F0BD002C16D0CB4517D05B462C
:10743000594201230B43EFE7310002230143EBD113
:10744000D9E7390002231143E6D1D7E73A43DDD12A
:1074500000230028E0D0EAE73A43E6D1E7E7A54277
:10746000E5DC05DBBE42E2D807D00023BE42D3D222
:107470005946012301390B43CEE7C445D7D8002331
:10748000C445F5D3C8E7C046FF070000F0B557462E
:107490004546DE464E46E0B50C0398464E00230BAB
:1074A00087B0070092469B46760DCD0F002E6BD01D
:1074B0006D4B9E4235D080245B46420F2404DB0096
:1074C00014431C43C3009946684BA3469C460023C3
:1074D00000276644029343461C035A00DB0F5046C4
:1074E000240B520D984600D176E05F4B9A426DD046
:1074F0008023410F1B040B435C49E4008C461C4372
:10750000C300002062444146B6186940721C0191D4
:10751000944607430F2F00D9B0E0554ABF00D25917
:1075200097465B460343994600D087E000239B467D
:10753000023308270293CEE742460192022867D021
:10754000032800D10EE2012800D062E100230024CC
:107550000022994601990140CDB2002112030B0D82
:10756000120B1B051343434A240513401C436400BC
:10757000ED0764082C434846210007B03CBC904608
:107580009946A246AB46F0BD034399464FD05B46B1
:10759000002B00D189E1584600F098FE03000B3B18
:1075A0001C2B00DD7AE11D22D31A3A0001005C4653
:1075B000DA4008398C4013008F4023439B46B9467C
:1075C00000232D4E0027361A029384E753462343A7
:1075D0002AD10024022096E75346234320D0002CD2
:1075E00000D157E1200000F071FE03000B3B1C2B83
:1075F00000DD49E11D21CB1A51460200D940534616
:10760000083A944093400C431B4A121A00207AE730
:107610000125019B144C1D400023002299469CE744
:107620000024002201206EE7534603206BE700236D
:107630009B4601330427002602934CE7032381462F
:107640000C27029347E78022002300251203994666
:10765000054C82E75C464B4602986FE75C464B461A
:10766000019502986AE7C046FF07000001FCFFFF92
:1076700008BF0108FFFF0F800DFCFFFF4A46494687
:10768000170C1A0C1B041B0C08041900000C4143B6
:107690001500884619007D437943039589462900E2
:1076A000150045434D44029545462D0CAA46029DC2
:1076B0005544A94506D98A46802149028946CA44CB
:1076C00051460391290C0491414609042D04090CEB
:1076D00088462900250C24044144240C05912100EE
:1076E00041438846210079438A46684341465044D5
:1076F0008146080C48446F43824503D980214902E2
:1077000089464F44010C894639004944029141465B
:107710000F0404993F0C88460004C0198044414678
:10772000049159460F0C0904090C884659438A46AE
:1077300039005143894641464A435146090C8B461C
:107740007B43D2185A44934203D980235B029B4661
:10775000D94451460904090C8A46414661437C4399
:10776000130C12044B445244A1468A463C00414645
:107770006C434D4351464D440F0C7D19A94503D927
:107780008021490288464444049F0399B8464144F5
:107790008B468345804141428846514608042F0468
:1077A000000C3F18584602991018894690429241A1
:1077B0004F44BA46524299469346C244D144CB44C0
:1077C0008F42BF41C245894199459B4193459241B2
:1077D0007F4249422D0C52420F435B4213437F19B3
:1077E000FF185B463C19DB0D059A64021C434302FB
:1077F00013435D1EAB415A46C00D0343520213436F
:10780000E20156D501205A0803401343E20713430F
:1078100064085A48604400284DDD5A0709D00F22F9
:107820001A40042A05D01A1D9A429B415B42E41873
:107830001300E20104D58020514AC0001440604486
:10784000504A904200DDE3E60125DB0862071A4357
:107850006402019B9146220B4405640D1D407CE6A9
:10786000802259461203114208D0144206D1224305
:107870001203120B45469946434C6EE65B461A438B
:107880001203120B404C68E603005446283B9C4010
:107890000023B9E600F01AFD2030A6E60300283BDD
:1078A0009F400023BB4699468AE600F00FFD20303A
:1078B00074E6B446ADE701252A1A382A06DD019B95
:1078C00000241D4000230022994646E61F2A21DCA1
:1078D00020252000AD1A1E00AB40A840D6405D1EFA
:1078E000AB4130431843D440430709D00F23034032
:1078F000042B05D00300181D98429B415B42E418FD
:10790000230221D50125019B01241D4000230022D3
:10791000994622E61F2521006D42281AC140080021
:10792000202A1DD05F35AA1A944023435C1EA34130
:10793000072503431D400022002D09D00F220024FB
:107940001A401800042AD6D1030065076402220BEE
:10795000DB082B4301259946019B00241D40FCE5D3
:107960000024E2E780220125120322430199120339
:10797000120B0D409946044CEFE5C046FF03000092
:10798000FFFFFFFEFE070000FF070000F0B54646C0
:10799000D6464F460C03C0B5CD0F4E00610A440FCA
:1079A0000C43C1005800400D84468A460F0019035D
:1079B000500F490A0143C648760DA846DB0FD20096
:1079C000844500D1D8E001204340AB4200D1A6E07D
:1079D0006046351A002D00DC05E1002810D10B00AF
:1079E000134300D1D7E06B1E002B00D04BE1534670
:1079F0009F1ABA458041641A4042241A01261EE0AB
:107A0000B34B9E4248D080231B041943382D00DD20
:107A100019E11F2D00DD4CE120230F005B1B10003E
:107A20009A409F40E840531E9A41E940074317435C
:107A30005346DF1B611ABA45A44164420C1B230262
:107A400000D4C5E06402650A002D00D1F6E02800EC
:107A500000F03CFC0300083B1F2B00DDE9E0202286
:107A60003C00D21A9D40D4409F4025439E4200DDF9
:107A7000DBE09E1B731C1F2B00DD0AE12022380077
:107A8000D21A290097402C009140D8407A1E974185
:107A9000DC40002601430F437B0709D00F233B4006
:107AA000042B05D03B1DBB42BF417F42E4191F00A0
:107AB000230225D5864B01369E4200D1AFE0854B8F
:107AC00001251C4043466207FF0864027605174300
:107AD000240B760D1D4000212403230B0C0D7E4A40
:107AE00024051C431440330523435B00ED075B086A
:107AF0002B43380019001CBC90469946A246F0BDA5
:107B0000012543466207FF081743E4081D40704BF8
:107B10009E4236D024037605240B760DDBE76346C0
:107B2000F31A002B00DC94E06046002835D068484A
:107B30008642B1D080273F043943382B00DCFDE07A
:107B40000A43170000217A1E974157445745804148
:107B5000091944420C1923023AD55D4B01369E4265
:107B600000D14BE101225B4B1C407B0817401F43B7
:107B7000E207174364088FE70800104300D024E7AA
:107B800021E723003B4300D1B9E1802212031443D3
:107B90002403240B9FE72E007EE70800104300D14A
:107BA000CAE0581E8446002800D0E7E052445245FF
:107BB000804164184042241817000126230207D58B
:107BC0000226CFE764462C4300D1B3E12C00674680
:107BD0007B0700D062E76307FF081F430125434688
:107BE000E4081D4093E7002D78D1751C6D056D0DDF
:107BF000012D00DCF2E05046801A8245BF41651A33
:107C00007F42ED1B8446280200D48CE05046171AB0
:107C1000BA4292410C1B5542651B984614E7012558
:107C2000434600241D40002755E72A4CF61A2C40F5
:107C300032E73D0028388540002717E7380000F07C
:107C400045FB203006E70A43170000217A1E9741C2
:107C5000EEE6002B00D0E5E0731C9C465B055B0D57
:107C6000012B00DC9FE01A4B9C4500D1C5E052443B
:107C700052458041641840422418E70752081743D0
:107C80006408664608E71248854200D185E01D0079
:107C9000BCE629001F3EF140202B00D17FE04022AE
:107CA000D31A9D402F437D1EAF4100240F43002671
:107CB0008EE72B000F00203BDF40202D71D04023AA
:107CC0005D1BA9400A43511E8A4100211743AFE6BC
:107CD000FF070000FFFF7FFFFFFF0F80002E3ED059
:107CE000B34EB44545D0802636046D423443382D1A
:107CF00000DDA8E01F2D00DD1FE1202627005046F3
:107D0000761BB740E84007435046B040461EB0419E
:107D1000EC403843171ABA4292410C1B5242A41A43
:107D2000664698468BE6644667462C4300D08BE651
:107D3000002500260027EAE61E00ADE61F2B60DCCA
:107D40002027F81A0F00844687401000D8400743C8
:107D500060468240501E8241D9401743F5E6260016
:107D60005046064305D0ED43002DD3D0904EB44588
:107D7000BDD10C001700664698468DE68C488342BC
:107D80000BD06346D9E6002D00D096E008001043E2
:107D900000D1E2E00C0017009846854E7CE60025F5
:107DA00080E700218EE7230050460343002E00D0D9
:107DB000A8E0002B00D1DEE00B00134300D16BE6FE
:107DC000524452458041641840422418170023024F
:107DD00000D4FDE6774B66461C405DE62500504624
:107DE0000543002ECFD1002D4FD10C00144300D1FC
:107DF000A0E00C00170098464EE6664600240027D7
:107E000085E61F000800203FF8400700202B00D126
:107E10008EE04020C31A99400A43511E8A41002136
:107E2000174392E6002E14D126005046064362D036
:107E3000DB43002B5CD18718974292416418524271
:107E4000A418664687E650462043441EA0410024FD
:107E500060E7574EB4454ED0802636045B4234432B
:107E6000382B00DD7FE01F2B00DD8BE02026270074
:107E70005046F61AB740D84007435046B040461E19
:107E8000B0410743DC40BF18D6E70D00154300D1D1
:107E900002E65046801A8245BF41651A7F42ED1BBB
:107EA0008446280200D48DE65046171ABA42924101
:107EB0000C1B5242A41A9846EEE50D00154300D162
:107EC0006BE750466707C00807438020E4080003BB
:107ED000044207D0CD08054204D12C009846D708AB
:107EE00049070F437B0FE4001C43FF00304ED3E5EE
:107EF0002F4EB445B4D10C0017006646CCE50027E0
:107F00000024E8E5002B39D00B00134300D144E7EF
:107F1000C008670707438020E40800030442E1D05B
:107F2000CB080342DED1D70849070F431C00D9E72D
:107F3000002171E700250027E9E52E002700203EFB
:107F4000F740202D2FD04026751BAC4050462043D3
:107F5000441EA04100243843DCE68024002524038D
:107F6000134E0027D3E5504620430700781E874173
:107F70000024BF1860E70C0017008DE50C00170007
:107F80000B4E89E51E002700203EF740202B0CD029
:107F90004026F31A9C4050462043441EA04107430C
:107FA0000024BF1848E70024D0E70024F3E7C046C8
:107FB000FF070000FFFF7FFF30B5134D0A034B00A2
:107FC000120B5B0DC90F0024AB4210DD0F4CA34216
:107FD0000FDC80240E4D64032243ED1A1F2D0BDDB0
:107FE0000C48C31ADA405442002900D11400200082
:107FF00030BD094BCC18FAE7084CE840A44663446E
:108000009A400243EFE7C046FE0300001D04000053
:108010003304000013040000FFFFFF7FEDFBFFFFB0
:1080200070B5002830D0C317C4185C40C50F2000BD
:1080300000F04CF9174B184A1B1AD21A1F2A18DDE8
:10804000164AD21A9440002224035B05240B5B0DD0
:108050000021100024030A0D240B12052243104CAA
:108060001B05224013435B00ED075B082B431900FF
:1080700070BD210091400A000B21081AC4405B0525
:108080002403240B5B0DE3E70025002300240022DA
:10809000DEE7C0461E0400003304000013040000A5
:1080A000FFFF0F8010B5041E28D000F00FF9154B0C
:1080B000154A1B1AD21A1F2A15DD144AD21A9440E7
